:020000040800F2
:1000000000000220310B0008810B0008810B000862
:10001000810B0008810B0008810B00080000000024
:10002000000000000000000000000000810B00083C
:10003000810B000800000000810B0008810B000804
:10004000810B0008810B0008810B0008810B000860
:10005000810B0008810B0008810B0008810B000850
:10006000810B0008810B0008810B0008810B000840
:10007000810B0008810B0008810B0008810B000830
:10008000810B0008810B0008810B000800000000B4
:10009000000000000000000000000000810B0008CC
:1000A000810B0008810B0008810B0008810B000800
:1000B000810B0008810B0008810B0008810B0008F0
:1000C000810B0008810B0008810B0008810B0008E0
:1000D000810B0008810B0008810B00080000000064
:1000E000810B0008810B0008810B00080000000054
:1000F000000000000000000000000000810B00086C
:1001000000000000810B0008810B0008810B000833
:1001100000000000000000000000000000000000DF
:10012000810B0008810B0008810B0008810B00087F
:10013000810B00080000000000000000000000002B
:10014000000000000000000000000000810B00081B
:10015000810B0008810B0008810B0008810B00084F
:10016000810B0008810B0008000000000000000067
:10017000000000000000000000000000000000007F
:1001800000000000810B00080000000000000000DB
:08019000810B0008810B00083F
:100198000348044B834202D0034B03B1184770470E
:1001A8000800002008000020000000000548064B59
:1001B8001B1AD90F01EBA301491002D0034B03B15D
:1001C80018477047080000200800002000000000C1
:1001D80010B5064C237843B9FFF7DAFF044B13B187
:1001E8000448AFF300800123237010BD08000020ED
:1001F80000000000CC0B000808B5054B1BB10549F1
:100208000548AFF30080BDE80840FFF7CFBF00BF47
:10021800000000000C000020CC0B000880B582B064
:1002280000AF00F09DF800F0A9FA03460D4A1360EC
:100238000C4B1B68002B14D10B4800F08BFA3B4683
:10024800184600F005FC0346084A1360074B1B6874
:10025800002BF4D13B68064A13607B68054A13609B
:10026800EDE7FEE700000020240000200400002045
:10027800280000202C00002080B400AF054BD3F8E4
:100288008830044A43F47003C2F8883000BFBD4682
:1002980080BC704700ED00E080B400AF2E4B1B6BB4
:1002A8002D4A43F0010313632C4B1B682B4A23F49C
:1002B8007C431360294B1B68284A43F42843136086
:1002C800264B1B6A254AC3F313031362234B1B6A8D
:1002D800224A43F0AA4343F4A00313621F4B9B68CE
:1002E8001E4A23F47C4393601C4B9B681B4A43F4CF
:1002F8007C439360194BDB68184A23F47C43D36032
:10030800164B1B68154A23F443731360134B1B6881
:10031800124A43F482731360104B5B680F4A23F050
:10032800120353600D4B9B680C4A23F4437393608C
:100338000A4B9B68094A43F402739360074BDB68D6
:10034800064A23F44373D360044B12229A6100BF18
:10035800BD4680BC704700BF003802400000024024
:1003680080B500AFFFF798FF0B4B1B680A4A43F4B0
:1003780080531360094B00221A60084B1B68074A18
:1003880043F447731360054B1B68044A43F040036A
:10039800136000BF80BD00BF4438024000300140F8
:1003A80080B483B000AF0346FB71FB791033054A74
:1003B800012101FA03F3936100BF0C37BD4680BCED
:1003C800704700BF0000024080B483B000AF03460E
:1003D800FB71FB79044A012101FA03F3936100BF21
:1003E8000C37BD4680BC70470000024080B485B021
:1003F80000AF0346FB7100BF0F4B9B6803F002037D
:10040800002BF9D00C4AFB79D36000BF0A4B9B68DC
:1004180003F00103002BF9D0074BDB68FB7300BF27
:10042800054B9B6803F08003002BF9D1FB7B184632
:100438001437BD4680BC70470030014090B585B088
:1004480000AF03463960FB711346BB803B68002B45
:1004580002D0BB88002B02D14FF0FF3322E00420EA
:10046800FFF79EFFFB7963F07F03DBB21846FFF7C7
:10047800BDFF0020FFF7BAFF0023FB810AE0FB89DC
:100488003A68D4180020FFF7B1FF03462370FB89B0
:100498000133FB81FA89BB889A42F0D30420FFF725
:1004A80093FF002318461437BD4690BD80B582B02F
:1004B80000AF03460A46FB711346BB710420FFF7E1
:1004C8006FFFFB7903F07F03DBB21846FFF78EFF5F
:1004D800BB791846FFF78AFF0420FFF775FF002352
:1004E80018460837BD4680BD80B483B000AF786039
:1004F8007B681B781AB27B6801331B781BB21B021E
:100508001BB213431BB29BB218460C37BD4680BCC6
:10051800704780B584B000AF78607868FFF7E4FF73
:100528000346FB81B7F90E30002B02DBB7F90E301A
:1005380001E0B7F90E3018461037BD4680BD0000FF
:1005480080B586B000AF3B46152219463120FFF72B
:1005580075FF0346002B02D04FF0FF33DDE03B462A
:100568001846FFF7C1FF034607EE903AB8EE677AE0
:10057800DFED6C6AC7EE267A6B4BC3ED007A3B461B
:1005880002331846FFF7B0FF034607EE903AB8EE7D
:10059800677ADFED666AC7EE267A634BC3ED017AA8
:1005A8003B795BB207EE903AB8EEE77ADFED606A26
:1005B800C7EE267A5C4BC3ED027A3B4605331846F4
:1005C800FFF7A7FF034607EE903AF8EEE77A9FEDAC
:1005D800597A37EEC77ADFED586AC7EE267A524B5A
:1005E800C3ED037A3B4607331846FFF792FF0346ED
:1005F80007EE903AF8EEE77A9FED4E7A37EEC77A33
:10060800DFED4E6AC7EE267A474BC3ED047A7B7A54
:100618005BB207EE903AB8EEE77ADFED496AC7EECB
:10062800267A414BC3ED057ABB7A5BB207EE903A66
:10063800B8EEE77ADFED436AC7EE267A3A4BC3EDA8
:10064800067A3B460B331846FFF74EFF034607EE84
:10065800903AB8EE677AF2EE006AC7EE267A324B25
:10066800C3ED077A3B460D331846FFF73DFF0346B7
:1006780007EE903AB8EE677ADFED336AC7EE267A6E
:10068800294BC3ED087AFB7B5BB207EE903AB8EED4
:10069800E77ADFED246AC7EE267A234BC3ED097AA1
:1006A8003B7C5BB207EE903AB8EEE77ADFED276A5B
:1006B800C7EE267A1C4BC3ED0A7A3B46113318461F
:1006C800FFF727FF034607EE903AB8EEE77ADFED2B
:1006D800186AC7EE267A144BC3ED0B7AFB7C5BB223
:1006E80007EE903AB8EEE77ADFED116AC7EE267AA0
:1006F8000D4BC3ED0C7A3B7D5BB207EE903AB8EE3A
:10070800E77ADFED136AC7EE267A074BC3ED0D7A59
:10071800054B012283F83C20002318461837BD46B4
:1007280080BD00BF00008043300000200000804EE4
:100738000000805700008046000080490000004EFD
:100748000000004F000000520000804200000047F7
:100758000000006080B582B000AF78607B68002B35
:1007680002D14FF0FF3305E0012279680020FFF73E
:1007780065FE034618460837BD4680BD80B582B081
:1007880000AF0023FB71304B002283F83C20B621D8
:100798007E20FFF78BFE0346002B02D04FF0FF337D
:1007A8004DE000233B6003E000BF3B6801333B6042
:1007B8003B68264A9342F7D9FB1D1846FFF7CAFF44
:1007C8000346002B02D04FF0FF3338E0FB79502B63
:1007D80002D06FF0010332E0FFF7B2FE0346002BB0
:1007E80002D04FF0FF332AE028211C20FFF75EFEDD
:1007F8000346002B06D0144B002283F83C204FF010
:10080800FF331CE002211D20FFF750FE0346002B9A
:1008180006D00D4B002283F83C204FF0FF330EE04A
:1008280033211B20FFF742FE0346002B06D0064B60
:10083800002283F83C204FF0FF3300E000231846E5
:100848000837BD4680BD00BF300000209F860100EC
:1008580080B485B000AF78607B6807EE903AB8EE58
:10086800677A154BD3ED007A77EE677AC7ED037A8E
:10087800114BD3ED017A97ED037A67EE277AC7ED2E
:10088800027AD7ED037A27EEA77A0B4BD3ED027ADB
:1008980027EE277AD7ED027A77EE277A064BC3ED53
:1008A8000E7A054B9B6B07EE903AB0EE670A143749
:1008B800BD4680BC704700BF3000002080B48BB0BC
:1008C80000AF7860614B9B6B7B62604BD3ED087A1D
:1008D80097ED097A67EE277AC7ED087A5B4B93EDB7
:1008E800097AD7ED097A67EE277A97ED097A67EEE4
:1008F800277AC7ED077A554B93ED0A7AD7ED097A2F
:1009080027EE277AD7ED097A67EE277A97ED097AE5
:1009180067EE277AC7ED067A4C4B93ED077AD7ED49
:10092800087A37EE277AD7ED077A77EE277A97EDA8
:10093800067A77EE277AC7ED057A444BD3ED047A29
:1009480097ED097A67EE277AC7ED087A3F4B93ED62
:10095800057AD7ED097A67EE277A97ED097A67EE77
:10096800277AC7ED077A394B93ED067AD7ED097ADE
:1009780027EE277AD7ED097A67EE277A97ED097A75
:1009880067EE277AC7ED067A7B6807EE903AB8EEED
:10099800677A2E4BD3ED036AD7ED087A76EEA76A0D
:1009A800D7ED077A76EEA76AD7ED067A76EEA77ABC
:1009B80067EE277AC7ED047A7B6807EE903AB8EEBF
:1009C800677A7B6807EE903AF8EE677A67EE277ADF
:1009D800C7ED037AFB683B621C4B93ED0B7A1B4B0C
:1009E800D3ED0C6AD7ED097A66EEA77A77EE277A07
:1009F800C7ED077A97ED087AD7ED077A67EE277A79
:100A0800C7ED067A7B6807EE903AB8EE677AD7EDBD
:100A1800037A27EE277A0D4BD3ED0D7A67EE277A06
:100A280097ED067A77EE277AC7ED027A97ED057A81
:100A3800D7ED047A37EE277AD7ED027A77EE277A60
:100A4800B0EE670A2C37BD4680BC704730000020E6
:100A580080B588B000AF78600023FB74304BFB6131
:100A68007B68002B04D02F4B93F83C30002B17D118
:100A78004FF0FF334FE007F113030122194603201B
:100A8800FFF7DCFC0346002B02D04FF0FF3342E0B7
:100A9800FB7C03F06003602B06D0FB69013BFB6124
:100AA800FB69002BE7D100E000BFFB69002B02D1F6
:100AB8004FF0FF332FE007F10C03062219460420FC
:100AC800FFF7BCFC0346002B02D04FF0FF3322E0B7
:100AD8003B7B1A467B7B1B021A43BB7B1B041343DD
:100AE800BB61FB7B1A463B7C1B021A437B7C1B04C5
:100AF80013437B617869FFF7ABFEF0EE407A7B68C1
:100B0800C3ED007AB869FFF7D9FEF0EE407A7B684A
:100B1800C3ED017A002318462037BD4680BD00BFCB
:100B2800A086010030000020DFF834D0FFF7A4FBD6
:100B38000C480D490D4A002302E0D458C450043330
:100B4800C4188C42F9D30A4A0A4C002301E0136006
:100B58000432A242FBD300F011F8FFF75FFB7047A5
:100B6800000002200000002008000020EC0B000814
:100B78000800002070000020FEE7000070B50D4B53
:100B88000D4C00261D1BB6EBA50F09D100F01AF875
:100B98000A4C0B4B00261D1BB6EBA50F05D170BDEB
:100BA80054F8043B98470136EDE754F8043B98475E
:100BB8000136F1E7E40B0008E40B0008E40B000839
:100BC800E80B0008F8B500BFF8BC08BC9E467047A3
:0C0BD800F8B500BFF8BC08BC9E46704792
:040BE4000102000802
:040BE800D901000827
:080BEC00FFFFFFFFFFFFFFFF09
:0400000508000B31B3
:00000001FF
