:020000040800F2
:1000000000000220AD1A0008FD1A0008FD1A0008C1
:10001000FD1A0008FD1A0008FD1A00080000000083
:10002000000000000000000000000000FD1A0008B1
:10003000FD1A000800000000FD1A0008FD1A000863
:10004000FD1A0008FD1A0008FD1A0008FD1A000834
:10005000FD1A0008FD1A0008FD1A0008FD1A000824
:10006000FD1A0008FD1A0008FD1A0008FD1A000814
:10007000FD1A0008FD1A0008FD1A0008FD1A000804
:10008000FD1A0008FD1A0008FD1A00080000000013
:10009000000000000000000000000000FD1A000841
:1000A000FD1A0008FD1A0008FD1A0008FD1A0008D4
:1000B000FD1A0008FD1A0008FD1A0008FD1A0008C4
:1000C000FD1A0008FD1A0008FD1A0008FD1A0008B4
:1000D000FD1A0008FD1A0008FD1A000800000000C3
:1000E000FD1A0008FD1A0008FD1A000800000000B3
:1000F000000000000000000000000000FD1A0008E1
:1001000000000000FD1A0008FD1A0008FD1A000892
:1001100000000000000000000000000000000000DF
:10012000FD1A0008FD1A0008FD1A0008FD1A000853
:10013000FD1A0008000000000000000000000000A0
:10014000000000000000000000000000FD1A000890
:10015000FD1A0008FD1A0008FD1A0008FD1A000823
:10016000FD1A0008FD1A0008000000000000000051
:10017000000000000000000000000000000000007F
:1001800000000000FD1A0008000000000000000050
:08019000FD1A0008FD1A000829
:100198000348044B834202D0034B03B1184770470E
:1001A8000400002004000020000000000548064B61
:1001B8001B1AD90F01EBA301491002D0034B03B15D
:1001C80018477047040000200400002000000000C9
:1001D80010B5064C237843B9FFF7DAFF044B13B187
:1001E8000448AFF300800123237010BD04000020F1
:1001F80000000000581E000808B5054B1BB1054952
:100208000548AFF30080BDE80840FFF7CFBF00BF47
:100218000000000008000020581E0008027801466F
:100228002AB10022013292B28B5C002BFAD101482C
:1002380001F078B99800002010B5AAB00A46044623
:100248004FF0000C1D488DF807C00DF107032C2155
:1002580001F0C4F870BB237802A98C4633B120465C
:100268000CF8013B10F8013F002BF9D114480CF1B0
:1002780005046346202203F8012BA34210F8012F3E
:10028800F9D19DF807300F4A180903F00F03105CE5
:10029800D35C8CF805000CF10902521A40F60D24C3
:1002A8000948ACF8074092B28CF8063001F03AF9E8
:1002B8002AB010BD0548FFF7B1FFF9E76400002038
:1002C8009C1E0008A022000898000020881E000834
:1002D800F0B5ADB0037804AC8C4621462BB101F8DB
:1002E800013B10F8013F002BF9D1194F4FF0000ED8
:1002F800A7FB0C23DB0803EB8300ACEB40000DEB02
:100308000E06724630300EF1010EBCF1090F307145
:100318005FFA8EFE9C46EBD8BEF1000F0CD00DF1B3
:10032800050301AE1344481E13F8015D00F8015F90
:10033800B342F9D10131114440F60D2321F8023BB3
:10034800091B8AB20348214601F0ECF82DB0F0BD34
:10035800CDCCCCCC980000202DE9F041DFED387AE7
:10036800B5EEC00AF1EE10FA60EE277A84B00546C1
:1003780062DBB6EE007A77EE877A3249324FFDEECD
:10038800E77A6C1C17EE900A0028B6BF2D232B23A2
:1003980040422B70A1FB003189094FF0000CA7FBEC
:1003A8000163DB0803EB8302A1EB42020DEB0C08AF
:1003B800E64630320CF1010C092988F804205FFA6E
:1003C8008CFC1946EBD8BCF1000F0CD00DF10503DD
:1003D80001AE2A46734413F8011D02F8011F9E421C
:1003E800F9D101347444174B1849A3FB00534FF457
:1003F8007A729B0902FB1303A1FB0052A1FB0313B2
:100408005B092E21303352096370217064230E4931
:1004180003FB1203A1FB0323A1FB0012D20802EB8A
:100428008202A0EB42003030DB083033E070201D40
:10043800A37004B0BDE8F081BEEE007A9BE700BF70
:1004480000007A44D34D6210CDCCCCCC1F85EB5143
:100458002DE9F047804A814B116B814F814841F06B
:100468000101C0B01163516C41F010015164526C2C
:100478001A687D4922F4701242F420121A605A68F0
:1004880022F4C0625A609A6842F470129A60DA687C
:1004980022F4701242F48012DA605A6A22F47F62FF
:1004A80042F4EE625A624FF4E134704B079305AAA6
:1004B800CDE9057401F00CF808B100BFFDE7694EFD
:1004C8006B4D04460FCE0FC533686A482B60FFF7A3
:1004D800A5FE6948FFF7A2FE684A10920622684BFB
:1004E80068498DF8482040F207421193ADF8502032
:1004F800139342F21072169101236348159710A9BD
:1005080017928DF8523000F053FD00285BD15F48F8
:100518000BADFFF783FE5C481022294600F092FFDE
:10052800002800F09180A6F11003DFF88881584E6A
:100538000193AA4605EB00090DF1720718AC55495D
:100548004622234603F8012BBB4211F8012FF9D1AB
:100558001AF8013B1A092C2B18F802208DF8722082
:1005680003F00F0208BF4C4918F802208DF87320D9
:100578001ABF31460D2320231DAA02F8013B11F8AA
:10058800013F002BF9D1121B019892B2214600F0CD
:10059800C9FFCA45D3D13C482C2100F02DFF814624
:1005A80010B33E48FFF73AFE00221892189BB3F5A5
:1005B8007A6FFAD200BF189B01331893189BB3F5D2
:1005C8007A6FF7D3F1E73648FFF728FE1894189B9F
:1005D800B3F57A6FFAD200BF189B01331893189BB2
:1005E800B3F57A6FF7D3F1E72E482F4EFFF716FED3
:1005F80003A800F0DBFF4FF4817303932249032320
:1006080003AA30468DF8103000F0F0FF07460028A6
:1006180052D026488DF82C903946FFF759FE022F04
:1006280000F06C81032F00F03C8100221892189B87
:10063800B3F57A6FFAD200BF189B01331893189B51
:10064800B3F57A6FF7D3F1E71948DFF86880FFF759
:10065800E5FD18AC9FE700BF0038024000000240EB
:100668000024F4009800002000100140400D030011
:1006780020000020041F0008342000080054004017
:1006880000040240801A060064000020742000085C
:10069800A41E0008A8200008A81E0008BC20000806
:1006A80054200008F4200008340000201C21000811
:1006B80090200008A02200089348FFF7AFFD934858
:1006C8003946FFF7B9FD92480921FFF7B5FD914872
:1006D8000A21FFF7B1FD0B218F48FFF7ADFDB6EEFC
:1006E800000A304601F0AEF98C48FFF797FD4FF449
:1006F800FA71304601F0DAF80146002845D12A4659
:1007080008A9304601F08AF9854A0823214612F8DB
:10071800010B01F8010B013BF9D19DED080A1AA85C
:10072800FFF71AFE202700F8017B9DED090AFFF765
:1007380013FE00F8017B9DED0A0AFFF70DFE794ACA
:1007480003460A3012F8011B03F8011B9842F9D13D
:100758009DED0B0AFFF700FE202700F8017B9DEDB9
:100768000C0AFFF7F9FD00F8017B9DED0D0AFFF774
:10077800F3FD034640F60D2223F8022B1B1B9AB209
:100788002146694800F0CEFE02E06848FFF7A0FD68
:100798006748FFF743FD6748294601F009F807460F
:1007A80000285AD143F6582220279DED0B0AADF8B0
:1007B80060200DF163008DF86270FFF7CDFD5E4A91
:1007C8003B46011D00F8013B884212F8013FF9D170
:1007D8009DED0C0AFFF7C0FD58490346202204305E
:1007E80003F8012B984211F8012FF9D19DED0D0A5C
:1007F800FFF7B2FD5249034620220B3003F8012BC4
:10080800984211F8012FF9D19DED0E0AFFF7A4FDCA
:100818004C49034620220C3003F8012B984211F86A
:10082800012FF9D19DED0F0AFFF796FD46490346C2
:100838002022063003F8012B984211F8012FF9D134
:10084800021B92B22146384800F06CFE394829460E
:1008580000F0AEFF07460028A4D0052817D00146AF
:100868003A48FFF735FD022F15D064220021089180
:10087800089BB3F57A6F07D200BF089B0133089332
:10088800089BB3F57A6FF7D3013AF0D183E7304884
:10089800FFF7C4FC7FE796F82C102E48FFF718FDE9
:1008A800E3E72946304600F089FE00287FF4BDAE14
:1008B80029491323224611F8010B02F8010B013BC9
:1008C800F9D19DF82C30190903F00F0318F801002D
:1008D80018F8033021498DF8743018228DF8730008
:1008E8000DF1750311F8010B03F8010B013AF9D169
:1008F8002D2221460C4800F015FE96E696F82C109D
:100908001448FFF7E5FC90E648210008702100082C
:10091800782100088021000888210008902100081B
:10092800EC1E0008F81E000898000020D4210008DA
:10093800F021000834000020142200081C220008BE
:1009480024220008302200084022000884220008DF
:100958004822000838210008BC1E0008D01E0008E4
:1009680070B54FF0010C44689DF810E00CFA01FCDA
:100978004CEA0404446086684C004FF0030C0CFAFF
:1009880004FC46EA0C068660C6680EFA04F526EAF8
:100998000C0E4EEA0505022AC56010D1CE0800EB00
:1009A800860601F00701890003FA01F54FF00F0EE2
:1009B800336A0EFA01F123EA01032B433362036819
:1009C800A24023EA0C031343036070BDD0F800C0B3
:1009D8002DE9F0411D46DCF80030DDF818E0BDF8DF
:1009E8001C609DF8208043F48073CCF800301746D3
:1009F800026A6AB1DCF81430DC0702F1FF320CD469
:100A08005C0508D413F4407FF3D00520BDE8F081DD
:100A18000320BDE8F0810420F8E74900CCF8101065
:100A2800026A11461446002CF2D0DCF8143013F098
:100A3800020F04F1FF3406D113F4806FEBD113F4E5
:100A4800407FF0D0E1E7DCF81430DCF81830002DF6
:100A580042D06C1E17FA84F47A1E0029D8D0DCF82C
:100A680014301D0601F1FF3105D45F05D3D413F40A
:100A7800407FF2D0C9E712F8013FCCF81030A2420B
:100A880001D0016AE9E7C6B1026A0EEB0601002A45
:100A9800BED0DCF814301D0602F1FF3205D45C0527
:100AA800B9D413F4407FF2D0AFE71EF8013BCCF87D
:100AB8001030714501D0026AE9E7026A002AA7D01E
:100AC800DCF81430580702F1FF3207D45905A2D4D4
:100AD80013F4407FF2D098E7002ED6D1B8F1000F7A
:100AE80005D0DCF8003043F40073CCF80030002067
:100AF8008CE700BFD0F800C010B51C46DCF8003009
:100B080043F48063CCF80030DCF8003023F4006351
:100B1800CCF80030DCF8003043F48073CCF80030B7
:100B2800036A964673B1DCF8142012F0010F03F142
:100B3800FF330BD112F4806F06D112F4407FF1D04D
:100B4800052010BD032010BD042010BD490041F050
:100B58000101CCF81010016A0B46002BF2D0DCF82A
:100B6800142012F0020F03F1FF3307D112F4806F43
:100B7800EAD112F4407FF0D00520E2E7012C33D00F
:100B8800022C55D0032CDCF81430DCF8183040F275
:100B98009880033C1EFA84F462460029D2D0536937
:100BA80013F0400F01F1FF3107D113F4806FCBD15F
:100BB80013F4407FF1D00520C3E7DCF810300EF8BD
:100BC800013B74450268016AE7D10029BAD053692C
:100BD80013F0040F01F1FF314BD113F4806FB3D13F
:100BE80013F4407FF1D0ABE7DCF8003023F48063E6
:100BF800CCF80030EFF3108272B6DCF81430DCF871
:100C08001830DCF8003043F40073CCF8003082F37D
:100C180010880168026A002A94D04B69580602F1CC
:100C2800FF3256D45C058FD413F4407FF3D087E7A6
:100C3800DCF8003023F48063CCF80030DCF80030B6
:100C480043F40063CCF80030DCF81430026ADCF8B6
:100C58001830002A3FF476AFDCF81430580702F158
:100C6800FF323CD459053FF56FAF13F4407FF0D005
:100C780066E7DCF8003023F48063CCF80030EFF34B
:100C8800108272B6DCF810302370DCF8003043F4C0
:100C98000073CCF80030DCF81030637082F31088F1
:100CA8000168026A002A3FF44DAF4B69580602F109
:100CB800FF3209D458053FF547AF13F4407FF1D010
:100CC8003EE76246744680E7DCF81030A3700020E7
:100CD80010BDDCF810308EF80030002010BDEFF3A6
:100CE800108272B6DCF8003043F40073CCF80030A0
:100CF800DCF810308EF8003082F31088DCF8103001
:100D08008EF80130DCF8003023F400630020CCF8C2
:100D1800003010BD002800F044812DE9F047046838
:100D28008AB0002C00F039812568037A027C41687A
:100D3800D0F80CE090F812904FF0010C0CFA03F781
:100D48000CFA02F625F0010525608F61CEF81860CF
:100D58004C683C434C608C6803FA0CF3032505FA95
:100D680003F844EA08048C60CC6809FA03FA24EA18
:100D7800080444EA0A04CC6002FA0CF2954009FA25
:100D880002F40CFA03F30CFA02FC0A6822EA0802DD
:100D980013430B60DEF804303343CEF80430DEF83A
:100DA80008302B43CEF80830DEF80C3023EA050370
:100DB80023437D4CCEF80C3022687C4BA3FB028386
:100DC800DEF800801B0D013328EA050503EB8303D9
:100DD80045EA0C05CEF800500293029B5D1E029571
:100DE80033B100BF029B5A1E0292002BF9D1226830
:100DF8006E4D4FEA07484FF0090CDEF81090A5FB3E
:100E080002A31B0D013319EA060F03EB830333D149
:100E1800C1F818800493DDF8109009F1FF3ACDF875
:100E280010A0B9F1000F0CD000BF049B5A1E049209
:100E3800002BF9D12268A5FB02931B0D013303EBAC
:100E480083038F610393DDF80C9009F1FF3ACDF825
:100E58000CA0B9F1000F0CD000BF039B5A1E0392DF
:100E6800002BF9D12268A5FB02931B0D013303EB7C
:100E78008303BCF1010CC0D1C1F818800993099A09
:100E8800551E09956AB100BF099B5A1E0992002B8D
:100E9800F9D12368454AA2FB03231B0D013303EB59
:100EA80083033204CEF818200893089A551E089533
:100EB8006AB100BF089B5A1E0892002BF9D123681B
:100EC8003A4AA2FB03231B0D013303EB83038F6113
:100ED8000793079A511E07916AB100BF079B5A1ED4
:100EE8000792002BF9D12368304AA2FB03231B0D7C
:100EF800013303EB8303CEF818600693069B5A1E52
:100F080006922BB100BF069B5A1E0692002BF9D100
:100F1800467C877C00970546017A40683346022262
:100F2800FFF71EFD0097297CE86802223346FFF789
:100F380017FD2B6822681D49A1FB0212196821F0D0
:100F480001011960196841F400411960196821F418
:100F580000411960120D696A59600132A96AD961A4
:100F680002EB8202E96A1962520040F201414FF431
:100F78008040986019600592059A511E059132B11A
:100F880000BF059B5A1E0592002BF9D12B68986962
:100F980000F002000AB0BDE8F08701200AB0BDE801
:100FA800F0870120704700BF0000002083DE1B434C
:100FB80038B32DE9F04F8E4685B0F1B10B68E3B137
:100FC8004A68D2B1CA68C2B10A7A0F2A15D80A7C0F
:100FD8000F2A12D84A7C0F2A0FD8944A9342844683
:100FE80011D002F58062934200F0108102F5806210
:100FF800934208BF4FF4000607D0012005B0BDE8B2
:10100800F08F012070474FF40016002374468CF8C7
:1010180030300FCC65460FC594E80F0085E80F0007
:10102800834BDCF81410A3FB0132DEF81C304CF2C1
:101038005030920C002B08BF0346901E3028CCF885
:101048002030DAD8DCF818007A4D441EAC42D4D8E7
:10105800794CA04240F2DF80784CA142CDD900EB18
:101068004000774C01390144B1FBF0F102EB42003A
:10107800A4FB0040C0080130029041F400400390F6
:101088000298CCF82C00043940F6FB70039CCCF88D
:1010980028408142B1D8DEF80C10DEF80400DFF8F1
:1010A800A4E1CCF8242001F13F4100F13F4001F5D3
:1010B8007E0100F57E004FF00108890A800A08FACF
:1010C80000F008FA01F10143DEF830000143CEF8E0
:1010D8003010DEF84010DCF804003143CEF8401040
:1010E800DEF840109CF8081045689CF812600196DC
:1010F80008FA01FE4EEA050E9CF81150C0F804E00B
:10110800876801FA08FE4FF0030909FA0EF427432D
:101118008760C76806FA0EF627EA04073E43C660EA
:1011280021FA09F600EB860701F007013E6A0097ED
:1011380089004FF00F0A0AFA01F726EA070605FAAE
:1011480001F1009F3143396201684FF0020B0BFA3D
:101158000EF621EA040131430160DCF80C109CF81A
:1011680010004E6808FA00F73E434E6000FA08F493
:101178008E6809FA04FE46EA0E068E60019E0BFA96
:1011880004F7A640CC6824EA0E042643CE6020FA71
:1011980009F601EB860400F0070000FA0BF00AFAE2
:1011A80000F68540206A20EA060028432062086885
:1011B800039C20EA0E0038430860DCF80010086839
:1011C80020F001000860086840F4004008600868E2
:1011D80020F4004008604FF4804E4A600298CC61C9
:1011E80040F201420862C1F808E00A604FF00102CB
:1011F8008CF830208A6912F002020AD0013BF9D13A
:10120800604605B0BDE8F04FFFF784BD4FF4800697
:10121800FBE61046F2E6013901EB40014000B1FB64
:10122800F0F1501CCDE902012AE700BF005400404C
:1012380083DE1B437F1A0600A0860100FF083D00DD
:10124800CDCCCCCC0038024000B50168036A83B02D
:101258009BB18A69920703F1FF33F9D44B6923F4F0
:1012680070634B610B6823F400630B600B6843F4F5
:10127800806300200B6003B000BD0191FFF74AFDB9
:1012880001990028EAD00220F5E700BFD0F800C095
:10129800DCF81830DB0705D5DCF8003043F40073C0
:1012A800CCF80030DCF81420036A22F47062CCF821
:1012B80014203BB1DCF81820920703F1FF33F8D46F
:1012C8000846704700B583B00191FFF723FD0199E7
:1012D800084603B000BD00BFF0B587B00C9CBDF850
:1012E800345048B390F830E0BEF1000F24D00E0619
:1012F80022D40CB305B30F46064603B3E2B1CDE9D9
:101308000423FFF7A1FFF0B9CDE901000090DDE962
:10131800042339463046FFF759FBB0B939462B4606
:1013280022463046FFF7E6FB014630B1304607B0AB
:10133800BDE8F040FFF7AABF012007B0F0BDFFF7F6
:1013480083FF0028EAD00220F7E70146EEE700BF56
:1013580000B5944685B05A1E012ABDF81CE012D883
:10136800022B069A08BF8DF80DC000920CBF4FEAF9
:101378001C2C0123CDF804E003AA8DF80CC0FFF75C
:10138800ABFF05B000BD012005B000BD30B587B08A
:101398008DF814208DF81530D8B190F83030C3B1DD
:1013A8000B0616D40D460446FFF74EFFA0B90123DD
:1013B800CDE9010300902946022305AA2046FFF73C
:1013C80005FB014630B1204607B0BDE83040FFF7C5
:1013D8005DBF012007B030BD0220FBE700B585B036
:1013E8009E4601238DF80F20CDE900E30DF10F0291
:1013F800FFF772FF05B000BDC8B190F83020B2B158
:101408000B0614D430B585B00D460446FFF71CFF13
:1014180078B90123CDE90103009003460246294625
:101428002046FFF7D3FA014628B905B030BD0120A0
:1014380070470220F9E7204605B0BDE83040FFF7C5
:1014480025BF00BF2DE9F04385B0002836D000291C
:1014580039D0174688460646082400254FF001096A
:1014680007E06B1C08F80540DDB20134E4B2782CC3
:1014780020D0AF4230461DD996F83030002BF4D03A
:10148800FFF7E2FE84460346024621463046BCF199
:10149800000FEAD1CDE901C9CDF800C0FFF796FAEF
:1014A8000028DED001340146E4B23046FFF7EEFEF4
:1014B800782CDED1284605B0BDE8F08305462846DD
:1014C80005B0BDE8F0830D46284605B0BDE8F083B9
:1014D80028B30B4619B394460AB31268FAB1DCF87C
:1014E8000420E2B110B5864604464EF8041B9CE879
:1014F80007008EE807000022DA60DCF8042032B129
:10150800DCF8001001EB5201B1FBF2F292B242F2A8
:101518000C0001219A60D8602174002010BD0620BB
:10152800704700BF18B3037C0BB3E9B1EAB18C462E
:1015380000B50168D0F80CE06244734601E0C3B11D
:10154800013B08680006FAD51CF8013B4B6094453E
:10155800F3D104E0BEF1000F0BD00EF1FF3E0B6893
:101568005B06F7D5002000BD0AB9002070470620A9
:101578007047072000BD00BF0A4B0B4A1B68A2FB3F
:10158800032382B01B0A00FB03F30193019B5A1E3D
:1015980001922BB100BF019B5A1E0192002BF9D179
:1015A80002B0704700000020D34D621020B14FF404
:1015B8008172032302600371704700BFA0B1D0F8A5
:1015C80000C0BCF1000F0FD071B110B50B46044636
:1015D800017900226046FFF701FF031E18BF0123AF
:1015E80084F82C00580010BD01207047F0B585B074
:1015F80000238DF80F30C8B1C1B1DAB1537892F831
:1016080000E092F802C0D4781D4643EA0E034CEA83
:1016180003032343032B264608D813790BB1032B66
:1016280004D1364A02EB8E0212680AE001231846FA
:1016380005B0F0BD9446324A0125664603234FF0B3
:10164800020E0446016080F805E0857180F807C045
:10165800067200206372E2604FF07E530022206120
:101668006061A061A06208462C21E3612362636285
:10167800A2850DF10F032171FFF7B0FE84F82C004D
:1016880028B99DF80F30802B03D00323CFE702231E
:10169800CDE7217920680B22FFF778FE84F82C002B
:1016A8000028F4D10A20FFF767FFA3790193217975
:1016B80063792068267AE779657A0B22FFF766FE58
:1016C80084F82C000028E2D13B010199206843EA04
:1016D80086132B4343EA8103DBB221790A22FFF701
:1016E80055FE84F82C000028D1D101900A20FFF77C
:1016F80043FF0122019B84F82D2098E7BC220008B3
:1017080000606A4558B1D0F800C0BCF1000F06D09F
:1017180090F82D301BB111B1437A032B01D0012071
:101728007047F0B5214B827933F8123085B000222A
:1017380003EB43030F46044603F114058DF8082014
:101748000AE09DF808301E46DB0714D45DB3FFF7A6
:1017580013FFD4F800C0013D02AB2179092260468D
:10176800FFF73CFE034684F82C300120002BE8D01C
:10177800022005B0F0BD062302AA019300920123BE
:10178800217920681A46FFF7E3FD84F82C00002829
:10179800EED1029ABDF80C303A6016F00200BB8018
:1017A80018BF0520E5E70420E3E700BFB4220008DE
:1017B800002975D030B585B00D4602A90446FFF75B
:1017C800A1FF08B105B030BDBDF90A3094ED057A26
:1017D800D4ED047AD4ED086AD4ED035A94ED065A90
:1017E800019000EE103ABDF90830B8EEC00A00EEDC
:1017F800903A30EE470ABDF90C3094ED077AF8EECE
:10180800E00A20EE260A70EEE70A07EE903A80EE2C
:10181800256A60EE870AF8EEE77A94ED097A85ED95
:10182800016AC0EEA56A77EEC57AC5ED006A67EE73
:10183800877A87EEA57A66EE067A85ED027AE6EE75
:10184800A67AE7EE077AB1EEE77A85ED037A00F03B
:1018580077F99FED147AD4ED0A7A0198E0EE077AC9
:10186800F5EEC07AF1EE10FA08D59FED0F7A77EE13
:10187800877AF5EEC07AF1EE10FAF8D49FED0A7A7D
:10188800F4EEC77AF1EE10FA06DB77EEC77AF4EEDB
:10189800C77AF1EE10FAF8DAC5ED047A05B030BD72
:1018A80001207047E12E65420000B4432DE9F04362
:1018B800584B0446884693E807008FB002AD03F101
:1018C8000C0785E8070097E8070005AE86E80700DB
:1018D800002C00F098802368002B00F0948094F886
:1018E8002D30002B00F08F80B8F1010F40F28B8073
:1018F8004FF000090BAF69462046FFF703FF0528A4
:10190800034637D000287FD1BDF9003007EE903A62
:10191800BDF90230F8EEE77A0DF1200CCDED087A2A
:1019280007EE903ABDF90430F8EEE77A2A46CDED95
:10193800097A07EE903AF8EEE77A3346CDED0A7A5F
:10194800FCEC017A92ED007AD3ED006AB4EEE77A06
:10195800F1EE10FAF4EEE67AC8BFB0EE677AF1EE6F
:1019680010FAD8BFF0EE667ABC45A2EC017AE3EC37
:10197800017AE5D109F10109C145BCD10BA89FED58
:10198800266A08AFF6EE006A01462A463346D3EDCA
:10199800007A92ED007A77EEC77A043167EEA67A7C
:1019A8000433F4EEC67AF1EE10FA02F1040241EDC6
:1019B800017A2DD4BB42EAD19DED0C7ADDED0B7A8C
:1019C800DDED0D6A77EE877AB0EE087A77EEA67AC3
:1019D80004F11003C7EE875A1C34B6EE006AF0EC27
:1019E800016AF6EC017A85EEA67AF5EC016A77EEE3
:1019F800A67A67EE867AE3EC017AA34283ED027A4F
:101A0800EDD1002300E0012318460FB0BDE8F083B4
:101A18000623F9E7701E00080000484280B179B13A
:101A280072B100F110031C3053F804CB41F804CB19
:101A38008342D3F808C042F804CBF5D100207047A0
:101A48000120704718B180ED0A0A00207047012074
:101A5800704700BF1049114BD1F88820DFF840C00B
:101A680042F47002C1F888201A68002042F001028E
:101A78001A6098601A6822F0847222F480321A6020
:101A8800C3F804C01A684FF0006C22F4A0221A6050
:101A9800D860C1F808C0704700ED00E00038024087
:101AA800103000240D4885460D480E490E4A002383
:101AB80002E0D458C4500433C4188C42F9D30B4AFA
:101AC8000B4C002301E013600432A242FBD3FFF762
:101AD800C1FF00F011F8FEF7BBFCFEE70000022092
:101AE80000000020040000200C230008040000204F
:101AF800AC000020FEE7000070B50D4B0D4C002631
:101B08001D1BB6EBA50F09D100F0A2F90A4C0B4B2F
:101B180000261D1BB6EBA50F05D170BD54F8043B7C
:101B280098470136EDE754F8043B98470136F1E74A
:101B380004230008042300080423000808230008DD
:101B480000F000B810EE903A23F00041B1F1FF4FD9
:101B5800F0EE407A33D810EE10CA2CF00040B0F105
:101B6800FF4F2CD8B3F17E5F3DD09A1702F00202E6
:101B780042EADC7230B371B3B1F1FF4F3ED0B0F13D
:101B8800FF4F35D000B5401AB0F1F45F83B04FEA8B
:101B9800E0512ADA002B3EDA3C313CDA9FED310A7B
:101BA800012A41D0022A46D03AB19FED2F7ADFEDC3
:101BB8002F7A30EE070A30EE670A03B000BD30EE28
:101BC800A70A7047022A0BD09FED297A032A08BF7B
:101BD800B0EE470A70478C450DDB9FED260A70472B
:101BE8009FED220A704700F04FB89FED220AD7E711
:101BF800BCF1000FF1DA9FED200A7047B0F1FF4FFA
:101C080002F1FF3220D0022A26D81C4B03EB8203B4
:101C180093ED000A704787EEA00A019200F010F9D0
:101C280000F032F8019ABBE710EE103A03F10043D6
:101C380000EE103AC1E79FED0C7ADFED0C7A30EE3A
:101C4800070A37EEC00AB8E7022A08D80C4B03EB9C
:101C5800820393ED000A70479FED020A70479FEDDB
:101C6800090A7047000000002EBDBB33DB0F494056
:101C7800DB0F49C0DB0FC93FDB0FC9BFCC2200080F
:101C8800D8220008DB0F493F10EE102A22F000434B
:101C9800B3F1A14FF0EE407A07D3B3F1FF4F56D816
:101CA800002A7CDD9FED530A704700B552498B42EC
:101CB80083B05BD8B3F1445F4CD34FF0FF3327EECA
:101CC800A76A9FED4E5A9FED4E7ADFED4E5ADFED33
:101CD8004E4A66EE066A591CA6EE857AE6EEA54AD5
:101CE8009FED4A5ADFED4A5AA7EE265AE4EEA65A65
:101CF8009FED487ADFED484AA5EE267AE5EEA64A3A
:101D08009FED465ADFED465AA7EE265A9FED457AD3
:101D1800A4EEA67AE5EE265A27EE267AA5EE867A6E
:101D280027EE277A42D04048404900EB8300D0EDA7
:101D3800006A37EE667A01EB8303D3ED006A37EE6B
:101D4800677A002A36EEC70A2CDB03B000BD30EEF6
:101D5800000A70479FED367A30EE077AF7EE006A90
:101D6800B4EEE67AF1EE10FAA7DDEEE7CDE900323F
:101D780000F066F82F49009B019A8B421AD8A1F50A
:101D8800D0018B422BD8F0EE007ABFEE007AA0EE9D
:101D9800277A002330EE270AC7EE007A8FE79FEDF7
:101DA800260A7047B1EE400A03B000BD37EEC70AF5
:101DB80003B000BD21498B420BD8F7EE087AB7EE85
:101DC800007AA0EE277A022330EE670AC0EE077A7F
:101DD80075E7BFEE007AC7EE007A03236FE7F7EEE8
:101DE800007A30EE677A30EE270A0123C7EE007AD0
:101DF80065E700BFDB0FC93FFFFFDF3ED769853CC2
:101E080059DA4B3D21A215BD6BF16EBD356B883D8E
:101E180095879DBD6E2EBA3D388EE3BD2549123E8D
:101E2800ABAAAA3ECDCC4CBEE4220008F42200089E
:101E3800CAF24971FFFF973FDB0FC9BFFFFF1B4085
:101E480010EE103A23F0004300EE103A704700BF3E
:101E5800F8B500BFF8BC08BC9E467047F8B500BF8F
:081E6800F8BC08BC9E4670475F
:101E700000FEFF4600FEFF4600FEFF46000000C7D2
:101E8000000000C7000000C720207265672072654F
:101E90006164206661696C65640D0A00203D203034
:101EA000780000000D0A000020203C2D2D20514D0F
:101EB0004335383833500D0A0000000020204348D5
:101EC00049505F49442072656164203D20307800AC
:101ED0002028647269766572206578706563747312
:101EE0002030783830290D0A000000004F666673F4
:101EF00065743A20000000000D0A5363616C652090
:101F00003A2000000D0A3D3D3D3D3D3D3D3D3D3DFE
:101F10003D3D3D3D3D3D3D3D3D3D3D3D3D3D3D3DF1
:101F20003D3D3D3D3D3D3D3D3D3D3D3D3D3D0D0A44
:101F300020202020202020514D4335383833502098
:101F40004D41474E45544F4D4554455220544553FD
:101F500054202020202020200D0A3D3D3D3D3D3DC8
:101F60003D3D3D3D3D3D3D3D3D3D3D3D3D3D3D3DA1
:101F70003D3D3D3D3D3D3D3D3D3D3D3D3D3D3D3D91
:101F80003D3D0D0A4D4355202020202020203A20A1
:101F900053544D333246343131434555360D0A558D
:101FA0004152542020202020203A205553415254A1
:101FB000312C2031313532303020626175640D0AA8
:101FC000493243202020202020203A20493243312A
:101FD0002C20504236202853434C292C2050423785
:101FE0002028534441290D0A537065656420202040
:101FF00020203A20343030206B487A2046617374B8
:10200000204D6F64650D0A3D3D3D3D3D3D3D3D3DEF
:102010003D3D3D3D3D3D3D3D3D3D3D3D3D3D3D3DF0
:102020003D3D3D3D3D3D3D3D3D3D3D3D3D3D3D0D10
:102030000A0000000D0A5B315D20496E6974696118
:102040006C697A696E6720493243312E2E2E0D0A53
:102050000000000049324320696E697469616C694F
:102060007A6174696F6E206661696C6564210D0A1E
:10207000000000000D0A2D2D2D204932432042552D
:1020800053205343414E202D2D2D0D0A00000000FA
:102090004E6F20493243206465766963657320661C
:1020A0006F756E64210D0A00466F756E642064655D
:1020B000766963652061742030780000514D4335A6
:1020C00038383350206E6F742064657465637465AE
:1020D0006420617420307832432120436865636B4B
:1020E00020776972696E672F706F7765722E0D0A9F
:1020F000000000000D0A5B325D20496E6974696161
:102100006C697A696E6720514D43353838335020F9
:102110006472697665722E2E2E0D0A00514D43357C
:10212000383833505F496E6974204641494C454404
:102130002E20636F64653D00202069326320737434
:10214000617475733D000000514D4335383833508C
:1021500020696E697469616C697A6174696F6E2057
:102160007375636365737366756C2E0D0A000000EA
:10217000434849505F49440053544154555320004B
:102180004354524C312020004354524C3220200002
:102190000D0A5B335D2043616C6962726174696F23
:1021A0006E3A20524F544154452074686520626F46
:1021B00061726420696E20616C6C20646972656371
:1021C00074696F6E7320666F7220313020732E2E0B
:1021D0002E0D0A0043616C6962726174696F6E2032
:1021E0006661696C65642E20636F64653D00000064
:1021F0000D0A2D2D2D204C495645204D4147204498
:102200004154412028353020487A29202D2D2D0D8C
:102210000A00000020593A2000000000205A3A200D
:1022200000000000204761207C207C427C3A200096
:10223000207C2048656164696E673A2000000000D8
:10224000206465670D0A000053656E736F72206F1E
:10225000766572666C6F7720286669656C64207499
:102260006F6F207374726F6E67202D2075736520F9
:1022700061206C61726765722072616E6765290DFD
:102280000A000000514D43353838335020726561E3
:1022900064206661696C65642E20636F64653D002F
:1022A000303132333435363738394142434445468C
:1022B00000000000640014000A00050000007A44D9
:1022C00000401C4500606A4500606A4600000080CE
:1022D000DB0F4940DB0F49C0DB0F49BFE4CB1640A1
:1022E000E4CB16C06937AC3168212233B40F143304
:1022F0006821A2333863ED3EDA0F493F5E987B3F99
:04230000DA0FC93FE8
:0423040001020008CA
:04230800D9010008EF
:04230C000024F400B5
:0400000508001AAD28
:00000001FF
